:020000040800F2
:10000000207E0020B9800008414A01083DE900082F
:10001000CB25010871BE00080DCD010800000000CD
:100020000000000000000000000000000180000847
:1000300015C900080000000055800008ED7E010889
:10004000D3800008D3800008D3800008BD68010871
:10005000D3800008D380000861D4000859D5000877
:1000600089D50008A5D50008E5D50008D38000088B
:10007000D3800008D3800008D3800008D380000814
:10008000D3800008A1C80008D38000080000000049
:100090000000000000000000000000001DD6000865
:1000A000D980010819810108F5800108D380000872
:1000B000358101086D81010889810108D38000081C
:1000C000D3800008D3800008D3800008D3800008C4
:1000D000D380000829C8010855CA010800000000A3
:1000E00099D4000891680108D3800008000000003E
:1000F000000000000000000000000000D5C800085B
:1001000000000000D3800008AD810108D380000802
:1001100000000000000000000000000000000000DF
:10012000D3800008D3800008D3800008D380000863
:10013000D380000800000000000000000000000064
:10014000000000000000000000000000D380000854
:10015000D3800008D3800008D9C8000805CD010865
:10016000D3800008D38000080000000000000000D9
:10017000000000000000000000000000000000007F
:1001800000000000D3800008000000000000000014
:10019000D3800008DFF80CD000F006F800480047D4
:1001A000A5020208207E0020064C074D06E0E0680C
:1001B00040F0010394E8070098471034AC42F6D3AE
:1001C000FFF7ECFFEC0100080C02000802E008C891
:1001D000121F08C1002AFAD170477047002001E0C1
:1001E00001C1121F002AFBD1704700000C02000859
:1001F00000000020AC020000A48700086C02000888
:10020000AC020020747B0000DC0100081AAA010186
:1002100018033608271AFF0101DF130101D2070A6C
:1002200013082609181C291B0217AA09134C012FB1
:10023000091144B9B40936640927381A01014A0280
:1002400001202403040405060A0D0F12151A2129A2
:100250003034373A3D404345484A4C4F5153565845
:0C0260005C5F62646464032140C0000025
:020000040800F2
:108000002A4B19680868B0E8F04F80F30988BFF37D
:108010006F8F4FF0000080F3118870470000000060
:1080200006480068006880F3088862B661B6BFF34E
:108030004F8FBFF36F8F00DF00BF00BF08ED00E080
:10804000DFF80C00016841F470010160704700BF67
:1080500088ED00E0EFF30980BFF36F8F134B1A68D0
:108060001EF0100F08BF20ED108A20E9F04F1060BD
:1080700008B44FF0600080F31188BFF34F8FBFF357
:108080006F8F18F03BFE4FF0000080F3118808BCA2
:1080900019680868B0E8F04F1EF0100F08BFB0EC88
:1080A000108A80F30988BFF36F8F70472400002087
:1080B000EFF30580704700000648804706480047F8
:1080C000FEE7FEE7FEE7FEE7FEE7FEE7FEE7FEE788
:1080D000FEE7FEE7F57E010895010008202A04DB93
:1080E000203A21FA02F00021704721FA02F3D04031
:1080F000C2F12002914008431946704740EA01034B
:108100009B0703D009E008C9121F08C0042AFAD24D
:1081100003E011F8013B00F8013B521EF9D2704711
:10812000D2B201E000F8012B491EFBD270470022B9
:10813000F6E710B513460A4604461946FFF7F0FF66
:10814000204610BD30B504460020034600E05B1C0D
:10815000934203D2E05CCD5C401BF8D030BD2DE9EA
:10816000FE4F804681EA0300C00F0C46009021F0CC
:10817000004123F00045B8EB0200A94105D240467A
:10818000214690461C460B46024623F00040104311
:1081900047D0270DC7F30A00C3F30A510290401AD3
:1081A000019040286BDAC3F3130040F4801B009861
:1081B000924620B10023D2EB030A63EB0B0B01982C
:1081C0005946C0F14002504600F0C0F906460D463F
:1081D00050465946019A00F0C8F910EB0800614179
:1081E000002487EA115284EAE7731A4340D0009AC8
:1081F00062B3019A012A4FEA075215DC001B61EBBA
:1082000002014FF0004202EA0752CDE90042001C91
:1082100041F5801132462B4600F0C8F903B0BDE8A5
:10822000F08F40462146F9E7001B61EB0201001C7C
:1082300041F5801300185B412018A2F5001747EBA9
:10824000030140EAD570B6196D4111E06D084FEA9F
:10825000360645EAC0754FEA0752001B61EB020182
:10826000001C41F5801149084FEA300000195141C6
:1082700032462B4603B0BDE8F04F00F088B90098B5
:10828000012240000023D0EB020263EBE073009870
:1082900021464FEAE074B8EB000061EB0401E9E726
:1082A00083F000435BE781F0004158E72DE9FE4F82
:1082B00081EA030404F0004421F0004100944FF0EF
:1082C000000B23F0004350EA01045ED052EA03049D
:1082D0005BD0C3F30A54C1F30A552C44A4F2F3341F
:1082E0000194A0FB0254C1F3130141F48011C3F3C4
:1082F000130343F4801301FB024400FB034E840A82
:10830000970A44EA815447EA8357A4FB0768029519
:108310008D0A05FB07854FEA932C04FB0C542705B7
:10832000029D4FEA065847EA1637B5EB08056EEB93
:10833000070C870E920E47EA811742EA8312A7FBC9
:108340000201B6EB0B0164EB00042B0D43EA0C3386
:108350005E1844EB1C50DA465146E7FB0201C5F3B8
:1083600013044FEA0B3343EA14534FEA0432019CDF
:1083700043EA0603A4F10C040294009CCDE900B486
:1083800000F014F903B0BDE8F08F00200146F9E7D2
:108390002DE9F04D81EA030404F0004B21F0004583
:1083A00014464FF0000A23F0004150EA050220D0A5
:1083B00054EA01021DD0C5F30A570246C5F3130360
:1083C000C1F31300C1F30A5640F4801543F480133F
:1083D000A7EB0608101BD64608F2FD3873EB050024
:1083E00002D308F1010801E092185B41B8F1000FD7
:1083F00003DA00200146BDE8F08D00204FF4801123
:10840000064684460EE0171B73EB050705D3121BC7
:1084100063EB050306434CEA010C49084FEA3000C0
:1084200092185B4150EA0107EDD152EA030012D0E5
:1084300082EA040083EA0501084305D0101BAB4122
:1084400006D20122002306E000224FF0004302E0A2
:108450006FF0010253101AEB06004CEB085110EBC1
:108460000A0041EB0B01BDE8F04D00F090B80EB5ED
:10847000C10F80EAE0700844CA07002140F233438C
:108480008DE80E000A460B4600F090F803B000BDE0
:108490000EB540F2334102910021CDE900110A46A8
:1084A0000B4600F083F803B000BD70B5C1F30A526B
:1084B00001F000450024C1F3130140F2FF3341F401
:1084C00080119A4201DA002070BD40F233439A4293
:1084D000A2F2334203DC5242FFF700FE00E090407C
:1084E0002C43F1D0404270BDC1F30A5210B5C1F324
:1084F000130140F2FF3341F480119A4201DA002067
:1085000010BD40F233439A42A2F2334203DC52429E
:10851000FFF7E4FD10BD904010BD000030B5041E13
:1085200071F1000404DB4FF00044404264EB0101B0
:10853000141E73F1000405DB1C464FF00043524249
:1085400063EB04038B4208BF824230BD202A04DB68
:10855000203A00FA02F1002070479140C2F1200356
:1085600020FA03F3194390407047202A06DBCB170B
:10857000203A41FA02F043EAE07306E041FA02F3DE
:10858000D040C2F12002914008431946704710B50F
:10859000141E73F1000408DA401C41F10001921826
:1085A0005B411A4301D120F0010010BD2DE9F04DCF
:1085B00092469B4611B1B1FA81F202E0B0FA80F224
:1085C00020329046FFF7C2FF04460F4640EA0A00F9
:1085D00041EA0B0153465A46084313D0114653EA69
:1085E000010019D0C8F140025046FFF777FD05465B
:1085F0000E46504659464246FFF7A8FF084305D0AD
:10860000012004E020463946BDE8F08D00200543F6
:1086100046EAE0762C4337430A986305E40AA0EB68
:1086200008000022FD0A44EA47540A3002D500201F
:108630000146E9E7010510196941DDE9084500191E
:108640006941BDE8F04DA2E72DE9F04D00231A463F
:108650001B1A8A4103DB00200146BDE8F08DC1F3FF
:108660000A52C1F3130141F480154FF0000BD107FA
:1086700002D100186D41521E0027044640F2FF113E
:10868000384601EB620A3E468046024600204FF41F
:108690008011FFF723FDC2197141BB1846EB0100A1
:1086A000B4EB030C75EB000C04D3E41A65EB000586
:1086B00017460E46241908F101006D418046342802
:1086C000E3DDF91946EB0600091BA84103D24FF080
:1086D000FF32134601E0002213461BEB070046EB76
:1086E0000A51BDE8F04DFFF752BF00002DE9F041FF
:1086F000054621F000400C46284309D0C4F30A5037
:1087000040F23341884205DD28462146BDE8F0812C
:108710002846FBE740F2FE31884210DC0CDB4FEAD2
:10872000043040EA155050EA053105D0104804F0F5
:10873000004101430020E9E700200146E6E7A0F2FE
:1087400033404642C6F1400228462146FFF7FEFE6E
:1087500007468846284621463246FFF7BFFC434677
:108760003A46FFF714FF3246BDE8F041FFF7EEBE90
:108770000000F03F30B5041E71F1000404DB4FF03F
:108780000044404264EB0101141E73F1000405DB58
:108790001C464FF00043524263EB0403994208BF6A
:1087A000904230BD70B58C1810F8015B15F00703CE
:1087B00001D110F8013B2A1106D110F8012B03E07A
:1087C00010F8016B01F8016B5B1EF9D12B0705D482
:1087D0000023521E0DD401F8013BFAE710F8013BCB
:1087E000CB1A921C03E013F8015B01F8015B521EE7
:1087F000F9D5A142D8D3002070BD70B504464FF41E
:10880000487500F0A5F904F0010000B1012404F05E
:10881000020000B1022404F0040000B10424012C81
:1088200004D0022C09D0042C18D10DE00523142209
:108830002946184600F030F911E014230522294694
:10884000104600F029F90AE02E4605EBD6704110DB
:1088500014231A46052000F01FF900E000BF00BFF6
:1088600000231A461946062000F016F900231A467E
:108870001946012000F010F90B2000F0B9FB70BD83
:1088800010B500BF00BF0021084615F033FF0620D9
:1088900000F0AEFB012015F0DFFC012015F03AFFDF
:1088A00015F030FE002009F0B9FE10BD01484078F7
:1088B000704700002837002001480078704700000A
:1088C00028370020014890F8180170472837002009
:1088D0000148007C70470000283700200148D0F88C
:1088E00014017047283700200148B0F90400704790
:1088F00028370020024AD2E90212C0E9001270476C
:108900002837002010B5044600BF00BF204600F005
:108910007BFB102000F06CFB042015F02DFE0120E5
:1089200015F09AFC012015F0F5FE15F0EBFD012085
:1089300009F074FE01200CF031FB10BD2DE9F0416F
:1089400006460D4600BF00BF00240027002005F0AA
:10895000D9FD281A04B202E0A4F5616004B2B4F5AE
:10896000E16FF9DA02E004F5616004B214F5E16F39
:10897000F9DDB4F5E16F03DC40F2A460844205DA6E
:1089800014F5E16F31DB3C4884422EDCB4F5E16F35
:1089900017DC40F2A460844213DB384800680028EA
:1089A00006DA0127354800682044344908602EE083
:1089B0000227A4F561603149096808442F4908601D
:1089C00025E02E480068002806DD02272B480068B5
:1089D00020442A4908601AE0012704F5616027490C
:1089E000096808442549086011E0002C04DBB4F54F
:1089F000E16F01DC012705E0002C03DC14F5E16FD9
:108A000000DB02271D48006820441C490860012F34
:108A100006D1012015F0B0FD012000F005FB05E0B6
:108A2000022015F0A9FD022000F0FEFA092000F056
:108A3000DFFA284600F0E8FA00F0C2FA3146304684
:108A400015F058FE012015F007FC012015F062FE1C
:108A500015F058FD002009F0E1FD13F091FB804670
:108A600000F0CCFA102006F025F9002000F0BAFA48
:108A70000EF06AF8BDE8F0815CF9FFFF9800002075
:108A800010B54FF48E710348FFF751FB01200149E7
:108A9000087410BD2837002030B51F4C94F81041E1
:108AA00004EB44051C4C143404F82500143C94F8E1
:108AB000104104EB4405184C143404EB8504616048
:108AC000154C94F8104104EB4405134C143404EB9A
:108AD00085042281104C94F8104104EB44050E4C9F
:108AE000143404EB850463810B4C94F81041641C2E
:108AF000094D85F810412C4694F81041142C02DDE4
:108B0000002485F81041044C94F81241641C024D75
:108B100085F8124130BD00002837002010B504460A
:108B200000F016F814231A4621460520FFF7B4FF7B
:108B300000231A4619460620FFF7AEFF00231A4607
:108B400019460120FFF7A8FF0B2000F051FA10BDD5
:108B50000020044981F8110181F8100181F8120107
:108B6000704700002837002000B5FFF7F1FF002311
:108B70001A4619460620FFF78FFF00231A461946AA
:108B80000120FFF789FF0B2000F032FA00BD000042
:108B90000EB51C4991F8121161B31A4991F81211DE
:108BA000491E184A82F81211114691F8111101EB71
:108BB00041021449143101EB82030ECB8DE80E0003
:108BC0000122104991F8111101EB41030D491431B3
:108BD00001F82320143991F81111491C094A82F82F
:108BE0001111114691F81111142906DD002182F8A6
:108BF000111102E001218DF800109DE80E0080E8BF
:108C00000E000EBD2837002070B505460E461446EE
:108C1000062D04D100231A461946FFF73DFF142301
:108C20001A4631460820FFF737FF012C01D0032CEC
:108C300006D100231A4619460D20FFF72DFF05E047
:108C400000231A4619460E20FFF726FF0B2000F0DE
:108C5000CFF970BD10B586B06846FFF799FF6C4636
:108C60009DF800008DF80C0001980490BDF80800F4
:108C7000ADF81400BDF80A00ADF816009DF80C0020
:108C8000122872D2DFE800F086834B5409418086B7
:108C9000667219865D373C341429049ABDF8163083
:108CA000D9B2BDF81430D8B2042300F01AF974E038
:108CB000049908B2FFF726FE6FE001A8FFF71AFE3D
:108CC000BDF81400BDF81610441804EBD47042101F
:108CD000DDE9010100F02CF95FE0049ABDF81630DF
:108CE000D9B2BDF81430D8B2112300F0FAF854E02C
:108CF00000F048F951E09DF80C0000F006FA4CE055
:108D00009DF80C0000F001FA47E0049ABDF8163017
:108D1000D9B2BDF81430D8B200F0C0F83DE0049AE2
:108D2000BDF81430D9B29DF80C0000F092F934E08F
:108D3000049ABDF81430D9B29DF80C0000F089F9FE
:108D40002BE0049ABDF81430D9B29DF80C0000F065
:108D500080F922E0049ABDF81630D9B2BDF814307B
:108D6000D8B2082300F0BDF817E013E0BDF81420D6
:108D7000BDF81630D41804EBD472C2F34700049A3D
:108D800011B2FFF7DBFD08E0FFF77AFD05E000F028
:108D900051F902E000F04EF900BF00BF06B010BD6F
:108DA00010B50446FFF7D4FE14231722C82104206F
:108DB000FFF772FE022C01D0042C06D100231A46C4
:108DC00019460E20FFF768FE05E000231A461946F3
:108DD0000D20FFF761FE0B2000F00AF910BD10B561
:108DE0000446FFF7B5FE00231A4619460620FFF792
:108DF00053FE012C01D0032C20D100231422C821C2
:108E00000520FFF749FE00231A4619460620FFF702
:108E100043FE142300224FF4C8710520FFF73CFEE7
:108E200000231A4619460620FFF736FE00231422B7
:108E30004FF416710820FFF72FFE1FE014230022C5
:108E4000C8210520FFF728FE00231A4619460620F0
:108E5000FFF722FE002314224FF4C8710520FFF70C
:108E60001BFE00231A4619460620FFF715FE1423A1
:108E700000224FF416710820FFF70EFE00231A4659
:108E800019460620FFF708FE00231A46194601205E
:108E9000FFF702FE0B2000F0ABF810BD70B50546E1
:108EA0000E46144600BF00BF3146284615F022FC8E
:108EB0002146204615F028FC082015F05DFB012016
:108EC00015F0CAF9012015F025FC15F01BFB052053
:108ED00000F08EF8002009F0A1FB00200CF05EF8F5
:108EE00070BD2DE9F04106460F4614461D4600BFF1
:108EF00000BF3946304615F0FDFB2146204615F0EF
:108F000003FC284600F074F8042015F035FB01201E
:108F100015F0A2F9012015F0FDFB15F0F3FA012080
:108F200009F07CFB01200CF039F8BDE8F08100006D
:108F300037B5144600BF00BF00F03CF8DDE9000182
:108F400000F068F8E1B2E0B215F0D4FB0C49084635
:108F500015F0DAFB0A2000F04BF8042015F00CFBAA
:108F6000012015F079F9012015F0D4FB01200CF057
:108F700015F8012009F052FB15F0C4FA3EBD0000BF
:108F8000FEFFFF1F10B500BF00BF0F2000F030F83C
:108F9000042015F0F1FA012015F05EF9012015F01A
:108FA000B9FB01200BF0FAFF012009F037FB15F0A7
:108FB000A9FA10BD002001494870704728370020E9
:108FC000002001490870704728370020012001491E
:108FD0004870704728370020012001490870704709
:108FE00028370020014981F81801704728370020F0
:108FF0000149087470470000283700200149C1F872
:10900000140170472837002001498880704700000C
:109010002837002003B50348DDE90012C0E9021239
:109020000CBD0000283700200149887070470000FF
:109030002837002010B500BF00BF15F0E5FB012068
:10904000FFF7D6FF002009F0E9FA012015F062FBD6
:1090500010BD70B506460D46144600BF00BF294638
:10906000284615F047FB2146204615F04DFB3046BB
:10907000FFF7BEFF022E03D1012015F07DFA02E0BA
:10908000022015F079FA012015F0E6F8012015F01C
:1090900041FB15F037FA002009F0C0FA00200BF070
:1090A0007DFF70BD10B515F083F90A2808DC15F0B6
:1090B000A3F90A2804DC0B20FFF79AFF012010BD5A
:1090C0000020FCE700B5FFF7F7FB30B1FFF778FFB2
:1090D0000B20FFF78DFF012000BD0020FCE710B53D
:1090E00015F06CF9044615F06FF9844206D215F0BC
:1090F00089F9044615F08CF9844204D30B20FFF75C
:1091000077FF012010BD0020FCE710B5044600BF2A
:1091100000BF15F0F7F9042015F02EFA2046FFF7EE
:1091200067FF012015F098F8012015F0F3FA0020F0
:1091300009F074FA10BD00002DE9FC5F80464FF085
:10914000000B002001900024814600258246002665
:109150000090B8F1010F30D0B8F1020F58D1424859
:10916000C17A0C3030F811001FFA80FA00BF16E007
:109170003D490C3131F91410A1EB0A0009F019FA3C
:109180000546284609F068F8322800DD09E036482F
:109190000C3030F81400304486B2601C04B2042C49
:1091A000E6DB00BF042C05D196FBF4F086B230B2AA
:1091B000009001E0012001902BE02B484178801CB9
:1091C00030F811001FFA80FA002714E02649891CA4
:1091D00031F91710A1EB0A0009F0EBF90546284612
:1091E00009F03AF8322800DD07E009F101000FFA32
:1091F00080F9781CC7B2042FE8DD00BFB9F1040F75
:1092000002DA0120019002E002F0DEFA009000E0B4
:1092100000BF00BF019810B10020BDE8FC9F02F024
:10922000F1FB98B902F03AFC009802F0DDFB05462C
:10923000284609F011F8322803DD28B202F0FEFBBF
:1092400002E028B205F0B6FA4FF0010BBBF1000FB7
:1092500007D0082005F02EFD012005F02BFD02208F
:10926000DBE70020D9E70000443800200A790270CB
:109270004A7942708A791206CB7942EA03420B7A24
:1092800042EA03224B7A1A434260427832B1012A01
:109290000AD0022A10D0FF2A12D10EE08A7A427236
:1092A00001F10B02C2600CE08A7A0272CA7A427241
:1092B00001F10C02C26004E003E08A7A027400E06B
:1092C00000BF00BF704700000FB4FEB50E9C002524
:1092D0004EA7D7E90062BF68CDE90127009600BF1D
:1092E000002340F2B27117E0CE1701EB9676B6106C
:1092F000A1EB86062EB9642691FBF6F706FB17163E
:1093000036B94FF4C87691FBF6F706FB17160EB97F
:109310005A1C93B24A1C91B2BDF820208A42E3DC69
:10932000BDF82020A2F2B272D21A40F26D1672433A
:10933000B7265E4302EB4600012123E002291BD140
:10934000BDF82020D61702EB9676B610A2EB860663
:109350003EB9BDF82060642796FBF7FC07FB1C664E
:1093600046B9BDF820604FF4C87796FBF7FC07FBC1
:109370001C660EB91D3003E04A1E1DF80220104481
:109380004A1C91B29DF822208A42D7DC9DF8232006
:10939000521E104404F40042BAB91F4A42439DF8D9
:1093A0002660C6EB4617C7EB062602EB06129DF8B1
:1093B0002760C6EB061602EB86029DF82860324451
:1093C000C4EB0416A2EB86001DE022B2002A01DBEA
:1093D000164600E05642B5B20F4A42439DF8266059
:1093E000C6EB4617C7EB062602EB06129DF8276070
:1093F000C6EB061602EB86029DF828603244C5EBE8
:10940000051602EB8600FEBC5DF814FB1F1C1F1E38
:109410001F1E1F1F1E1F1E1F8051010003480449ED
:10942000086004480449086070470000602B002071
:1094300080000020D1AF0008840000202DE9F04713
:1094400005460E46002400274FF0FF394FF0FF3845
:10945000A2465148007801283AD100204E490870B0
:109460004E4800783044401E04B20CE0642C00DD0D
:109470000DE0002C00DA002448480078201A285C0F
:109480002855601E04B2454800788442EEDA00BFD9
:1094900000240DE0642C00DD0EE0002C00DA002436
:1094A0003F48006800F67230005D2855601C04B229
:1094B0003A4800788442EDDB00BF384800783044F9
:1094C000642803DC35480078304400E0642086B22C
:1094D00000242BE0285DAA2825D1A146622C00DBC0
:1094E00022E0A01C295C601C285C01EB002007B274
:1094F000E019401E642800DD16E0032F00DA13E0B7
:10950000BA1C91B2281908F0D9FE8246E019801CD5
:10951000285C504507D1281900F044F8E019801C58
:109520000FFA80F8444600BF601C04B2B442D1DB9D
:10953000701E40452DD009F1010050B3012016499D
:10954000087000201549087008F1010000B100E022
:10955000484604B21AE0002C00DA19E0642C00DD61
:1095600016E0295D0E48006800F672300B4A12784A
:1095700081540A480078282805DA08480078401CF9
:109580000649087000E003E0601C04B2B442E2DB6C
:1095900000BFBDE8F087000088000020890000209F
:1095A0008000002010B5044601201849096888771A
:1095B00021461648006800F69C30FFF757FE134816
:1095C000006890F89D0BFF2806D01048006800F650
:1095D0009C300F49096888470C48006890F89D0B3B
:1095E000012802D0FF280ED106E00848006800F6E6
:1095F0009C3000F039F807E00448006800F69C3021
:1096000000F008F800E000BF00BF10BD800000209F
:1096100084000020134A41681268C2F85C13017C80
:10962000C82901D1012100E000210E4A126882F808
:1096300060130C49096891F8501389B10949096808
:10964000D1F85C13074A1268D2F85423914207D12B
:109650000449096891F86013024A126882F85813A5
:10966000704700008000002010B50446607A18287A
:1096700059D00FDC18286FD2DFE800F08E373B8E10
:109680008E8E8E8E3C3D4142434445464748494A72
:109690004B4C4D514B2875D014DC252848D008DCA4
:1096A000192841D0222840D023283FD0242873D124
:1096B0003DE0262840D0472857D0482859D049288F
:1096C0006AD15BE0C9283FD008DC4C285BD0502829
:1096D0005DD073285CD0C8285ED131E0CA2837D06D
:1096E000CB283AD0CC2857D13BE0E06800F05CFAB8
:1096F00053E052E051E0E06800F0DAF84DE000BFDE
:1097000000BF00BF00BF00BF00BF46E045E044E02F
:1097100043E042E041E0E06800F042F83DE0E0680C
:1097200000F09CF839E038E037E036E035E034E02E
:10973000E06800F053F930E0E06800F0C9F82CE090
:10974000E06800F0FDF928E0E06800F069F924E045
:10975000E06800F05BF920E01EE0E06800F074F8DB
:109760001BE0E06800F0B4F917E0E06800F090F961
:1097700013E0E06800F09CF90FE003E0E06800F01F
:1097800087F80AE009E0E06800F036F805E004E058
:10979000E06800F0A9F800E000BF00BF10BD0000C5
:1097A0000178144A126882F82E1242781149096829
:1097B00081F82F2282780F49096881F83022C27817
:1097C0000C49096881F8312202790A49096881F84F
:1097D00032220849096891F82E12064A126882F866
:1097E00043120121034A126882F8801300BF00BFB0
:1097F00070470000800000200CB501788DF8001043
:1098000041788DF8011081788DF80210C1788DF8BB
:10981000031001798DF804109DF80210032902DB72
:1098200001218DF802109DF80210064A126882F894
:1098300053120121034A126882F87C1300BF00BF53
:109840000CBD0000800000200178034A126882F8F5
:10985000501300BF00BF70478000002001780B4A02
:10986000126882F84F1200BF00BF0849096891F8DA
:109870004F1229B10A21054A126882F8501204E0F9
:109880000021024A126882F85012704780000020BE
:109890000178064A126882F849120121034A1268C7
:1098A00082F8811300BF00BF7047000080000020D5
:1098B0000178064A126882F878130122034B1B686C
:1098C00083F87B2300BF00BF7047000080000020AA
:1098D000017831B10121034A126882F87D1300BF7B
:1098E00000BF7047800000201EB5044620783A492A
:1098F0000968A1F8B00B38480068B0F8B00B00F563
:10990000FA6035490968A1F8B00B617832480068FF
:1099100080F8B21BA1783048006880F8B31BE1786A
:109920002D48006880F8B41B2B48006890F8B40BF1
:1099300020B907212848006880F8B41B21792648FF
:10994000006880F8B51B61792348006880F8B61B71
:10995000A1792148006880F8B71BE1791E480068AA
:1099600080F8B81B207A0006617A00EB0140A17AEA
:1099700000EB0120E17A014417480068C0F8BC1BE5
:1099800001201549096881F87903002002901248E6
:10999000006800F53B6041690069CDE900010E48AF
:1099A000006800F5386030300FC8FFF78DFC0A49B9
:1099B0000968C1F8C00B08480068D0F8C01B064809
:1099C0000068D0F8BC0B091A03480068C0F8C41B33
:1099D00000BF00BF1EBD00008000002008B5017858
:1099E00049B28DF80010417849B28DF801109DF808
:1099F0000010054A126811720121034A126882F8A8
:109A00007F1300BF00BF08BD800000200178034A1B
:109A1000126882F8841300BF00BF704780000020E6
:109A200001790906427901EB0241827901EB0221B9
:109A3000C2790A44154909680A61417A027A01EB40
:109A400002218AB2114909688A82827A0F4909681B
:109A50008A75C27A0D490968CA75027B0B49096883
:109A60000A76427B094909684A76827B0749096878
:109A70008A76C27B05490968CA760449096809697A
:109A8000024A1268516000BF00BF7047800000208A
:109A90000178064A126882F846120121034A1268C8
:109AA00082F8821300BF00BF7047000080000020D2
:109AB0000178064A126882F84C120121034A1268A2
:109AC00082F8831300BF00BF7047000080000020B1
:109AD0000146002007E00B5C184A126802F23322AC
:109AE0001354421CD0B20628F5DB002008E0821D8A
:109AF0008B5C124A126802F239221354421CD0B213
:109B00000428F4DB8B7A0D4A126882F83D3200207B
:109B100009E000F10B028B5C084A126802F23E2257
:109B20001354421CD0B20428F3DB0123034A126809
:109B300082F8423200BF00BF704700008000002062
:109B400001780122174B1B6883F87E2300BF00BFFA
:109B50000A1F082A23D2DFE802F004090E13182294
:109B6000221D04220F4B1B685A7719E005220D4B6A
:109B70001B685A7714E006220A4B1B685A770FE0DD
:109B80000722084B1B685A770AE00822054B1B681E
:109B90005A7705E00B22034B1B685A7700E000BFA1
:109BA00000BF7047800000200178054A126891705C
:109BB0000121034A126882F87A1300BF00BF704780
:109BC0008000002001461B2962D011DC1B296FD2C6
:109BD000DFE801F03234368D8D8D8D8D383A3C3E84
:109BE00040424446484A4C4E50525456585A5C00E3
:109BF000472968D00BDCA1F11C000B2877D2DFE8E5
:109C000000F0494B4D4F515355585A5C5E00502956
:109C100065D008DCA1F14800052868D2DFE800F033
:109C20005557595B5D0073295FD0C82949D0CB29AE
:109C300059D0CC295BD154E00A2070470220FCE7C0
:109C40000020FAE70020F8E70220F6E71E20F4E7FC
:109C50001F20F2E72020F0E72120EEE72220ECE7AA
:109C60002320EAE72420E8E70220E6E70220E4E7F1
:109C70002520E2E70220E0E70220DEE72A20DCE7F9
:109C80000020DAE70220D8E70220D6E70520D4E753
:109C90002620D2E70520D0E72720CEE72B20CCE7EF
:109CA0000020CAE72820C8E72920C6E72C20C4E7FF
:109CB0001DE02D20C1E72E20BFE72F20BDE70020AB
:109CC000BBE70220B9E70220B7E70220B5E7022090
:109CD000B3E70220B1E70220AFE74E20ADE7502006
:109CE000ABE70020A9E70020A7E75920A5E700205F
:109CF000A3E70000002002490968A1F8900370471B
:109D0000940000200248006890F88C03704700001F
:109D10009400002002480068B0F8900370470000EB
:109D2000940000200448006890F83E03642801D1A4
:109D3000012070470020FCE79400002001B51E4878
:109D4000006890F8410308B1002008BD1A48006877
:109D500090F83E03642801DD0020F6E7164800680D
:109D600090F83E131448006800F51D7000EB4100A8
:109D7000BDF8001001801048006890F83F03401CB7
:109D8000C1B20D48006880F83F130B48006890F896
:109D90003E03401CC1B20848006880F83E130648E4
:109DA000006890F83F03642804DD00210248006841
:109DB00080F83F130120C8E79400002000210848E4
:109DC000006880F83E130648006880F83F13044896
:109DD000006880F840130248006880F8411370471B
:109DE0009400002001461A48006890F83E0308B924
:109DF000002070471648006890F840231448006817
:109E000000F51D7000EB42000088088010480068D3
:109E100090F83E03401EC2B20D48006880F83E2311
:109E20000B48006890F84003401CC2B20848006824
:109E300080F840230648006890F84003642804DD59
:109E400000220348006880F840230120D1E7000089
:109E5000940000202DE9F74F2DED028B82B04FF0DA
:109E6000000A0024FE480068B0F89013FC4800681F
:109E700000F505600D18AA222146641C6A54A41C32
:109E800001222146641C6A5400222146641C6A5443
:109E90009DF810202146641C6A540598010E224644
:109EA000641CA9540598C0F307422146641C6A54F7
:109EB0000598C0F307222146641C6A542146641C9D
:109EC000059868549DF81000802871D19DF81A00FB
:109ED000FFF778FE2146621C94B268549DF81A2060
:109EE0002046611C8CB22A549DF81A001B2872D09F
:109EF00011DC1B2870D2DFE800F0345C646F6F6FF8
:109F00006F6F65666768696A6B6C6D707172737488
:109F100075A4A5A6A70047287ED00BDCA0F11C00E5
:109F20000B28E7D2DFE800F0FEFDFCFBFAF9F8F7BA
:109F3000F6F5F400502870D00ADCA0F1480005289E
:109F4000D8D2DFE810F07F028802910292029302D9
:109F5000C92873D0CA2872D0CB2871D0CC283BD165
:109F600066E29FEDC00BB0EE408AF0EE608ABC481E
:109F7000006890F82D0206280FDDB948006890F8B7
:109F80002D02801F642110FB01F05E2190FBF1F691
:109F90003046FEF76CFA41EC180B2819B0EE480A6F
:109FA000F0EE680A00F0C8FB04F1080084B285E214
:109FB00085E2AB480068C2782046611C8CB22A5406
:109FC0007CE27BE27AE279E200BF00BF00BF00BF23
:109FD00000BF00BF72E24BE06FE26FE26EE26DE243
:109FE0006CE26BE29E48006890F844222046611CB7
:109FF0008CB22A549A48006890F82F222046611C9F
:10A000008CB22A549648006890F830222046611C91
:10A010008CB22A54924801E00BE24DE2006890F8BD
:10A0200031222146601C84B26A548D48006890F841
:10A0300032222046611C8CB22A543FE2F5E1F5E160
:10A04000F5E13BE23AE239E285480068006984497B
:10A05000096891F90810C1EB4112C2EB012100EB34
:10A0600001132819194600F092FB201D84B225E245
:10A070007B480068B0F98A030A2190FBF1F0C0F533
:10A08000B47087B276480068C06A5B214843642197
:10A09000B0FBF1F01FFA80FB7148006890F8C881AE
:10A0A00000BF00BFB7F5B47F00D100276C4A12682B
:10A0B000B2F8862391B2281900F065FBA01C84B287
:10A0C000674A1268B2F8882391B2281900F05BFB46
:10A0D000A01C84B22819394600F055FBA01C84B29C
:10A0E0002819594600F04FFBA01C84B25C4A126844
:10A0F000128E91B2281900F046FBA01C84B20022F7
:10A100002046611C8CB22A542046611C8CB20AE0A5
:10A110008AE188E186E159E157E155E153E151E1F6
:10A120004FE16FE061E02A542046611C8CB22A5452
:10A130002046611C8CB22A542046611C8CB22A54E1
:10A1400001214748006880F8CB11B8F1000F46D0D4
:10A150004FF0000940E001A800F0FCFBBDF906103B
:10A16000BDF90400414A126890470646BDF8042034
:10A1700091B2281900F007FBA01C84B2BDF806209C
:10A1800091B2281900F0FFFAA01C84B2012E05D16B
:10A190000A222046611C8CB22A5413E0022E05D1FB
:10A1A0000B222046611C8CB22A540BE0032E05D1F1
:10A1B00002222046611C8CB22A5403E02046611C16
:10A1C0008CB22E54B4F5C87F02DB00BF00BF05E09F
:10A1D00009F101001FFA80F9C145BCDB00BF002175
:10A1E0001F48006880F8CB1168E11D480068D0F86E
:10A1F00060322819194600F0CAFA201D84B200BF47
:10A2000000BF5BE101211648006880F84113144A41
:10A2100012682819D2F8601200F0B9FA201D84B231
:10A220000F48006890F869222046611C8CB22A54BD
:10A230000B48006890F86A222046611C8CB22A54B0
:10A24000074A1268B2F86C12281900F09CFAA01C98
:10A2500084B2034A1268B2F86E12281908E00000AE
:10A26000940000200000000000000000900000208A
:10A2700000F089FAA01C84B2D448006890F87022DB
:10A280002046611C8CB22A54D048006890F8712294
:10A290002146601C84B26A5400222046611C8CB2A4
:10A2A0002A542046611C8CB22A542146601C84B278
:10A2B0006A542046611C8CB22A5401222046611C3B
:10A2C0008CB22A54C1480068B0F86402C0F3072277
:10A2D0002046611C8CB22A54BC48006890F8642265
:10A2E0002046611C8CB22A54B8480068B0F8660257
:10A2F000C0F307222046611C8CB22A54B348006880
:10A3000090F866222046611C8CB22A54AF4A12682B
:10A31000B2F87212281900F036FAA01C84B235E0A7
:10A3200001A8FFF75FFDA948006890F86822204661
:10A33000611C8CB22A549DF80400012805D10A2220
:10A340002046611C8CB22A5419E09DF804000228B2
:10A3500005D10B222046611C8CB22A540FE09DF8D7
:10A360000400032805D102222046611C8CB22A5425
:10A3700005E09DF804202046611C8CB22A549DF80B
:10A3800005202046611C8CB22A5400BF8F4800680B
:10A3900090F83E030028C3D18C48006890F8700202
:10A3A000401CC1B28948006880F8701200218748BB
:10A3B000006880F8411301218448006880F8591230
:10A3C0007CE07BE07AE079E078E077E045207F4947
:10A3D0000968C1F844037D4A12682819D2F8441369
:10A3E00000F0D5F9201D84B240F2014177480068A1
:10A3F000C0F84813754A12682819D2F8481300F0BB
:10A40000C6F9201D84B2022170480068C0F84C13C0
:10A410006E4A12682819D2F84C1300F0B8F9201DC2
:10A4200084B24BE04AE049E048E047E046E045E0DE
:10A4300044E06648006890F847222046611C8CB2D0
:10A440002A543BE06148006890F84D222046611C88
:10A450008CB22A5432E05D48006890F84A222146C6
:10A46000601C84B26A5429E028E027E001222046DB
:10A47000611C8CB22A545548006890F8522220463C
:10A48000611C8CB22A545148006890F8542220462E
:10A49000611C8CB22A544D48006890F85522204621
:10A4A000611C8CB22A544948006890F85722204613
:10A4B000611C8CB22A5401E000E000BF69E09DF805
:10A4C0001000FF2805D1C8222046611C8CB22A54F6
:10A4D0005FE09DF8100081281ED19DF819202046CC
:10A4E000611C8CB22A549DF8190098B9374800684D
:10A4F00090F851021D2804D100203449096881F8E0
:10A5000051023248006890F851222046611C8CB2FA
:10A510002A5400E000BF3CE09DF81000F02807D16D
:10A520009DF81A202046611C8CB22A5400BF30E0EE
:10A530009DF81000F1282CD19DF81A00FFF742FB7E
:10A540002146621C94B268549DF81A202046611C72
:10A550008CB22A549DF81A00C82802D0CB2816D1F4
:10A5600007E01A480068027F2046611C8CB22A541A
:10A570000EE01648006890F850232046611C8CB20B
:10A580002A54124905980968C1F8540300E000BF35
:10A5900000BFA01E000A6870A01EA87021462846B1
:10A5A00007F08CFE82462046611C8CB205F800A0A4
:10A5B00006480068B0F89003204404490968A1F8EF
:10A5C000900302B0BDEC028BBDE8FE8F940000202A
:10A5D00004480549086005480549086005480649DA
:10A5E00008607047A5CC01088C000020BD1301084D
:10A5F00090000020602B0020940000200948006893
:10A6000090F88D030749096891F88E13884206D0A7
:10A610000448006890F88C0308B9012070470020B6
:10A62000FCE700009400002007B51E48006890F881
:10A63000700308B100200EBD1A48006890F88C0322
:10A64000642801DD0020F6E71648006890F88D03C5
:10A6500000EB40011348006800F5657000EB8100D5
:10A660009DE80E000EC00F48006890F88D03401C56
:10A670000C49096881F88D030A48006890F88C033A
:10A68000401C0849096881F88C030648006890F866
:10A690008D03642804DD00200249096881F88D03D8
:10A6A0000120C8E79400002000200649096881F8CD
:10A6B0008C030449096881F88D030249096881F80F
:10A6C0008E0370479400002001461A48006890F8F5
:10A6D0008C0308B9002070471648006890F88E0374
:10A6E00000EB40021348006800F5657000EB820340
:10A6F0000DCB81E80D000F48006890F88C03401ED8
:10A700000C4A126882F88C030A48006890F88E039D
:10A71000401C084A126882F88E030648006890F8C8
:10A720008E03642804DD0020024A126882F88E033A
:10A730000120D0E7940000202DE9F0432DED028B9D
:10A7400083B00746B0EE408AF0EE608A8DED008B54
:10A750004FF0080800240FE0A8EB0400401EC006DC
:10A760004FEA10694A46DDE9005628463146FDF7B2
:10A77000B5FC3855601CC4B24445EDDB03B0BDECFC
:10A78000028BBDE8F0830A0A0270417070470A0E1E
:10A7900002700A0C42700A0A8270C1707047000091
:10A7A00001B51A48006890F82002142801DD002045
:10A7B00008BD1648006890F821121448006800F59A
:10A7C000E67000EB8100009901601048006890F885
:10A7D0002102401CC1B20D48006880F821120B48CC
:10A7E000006890F82002401CC1B20848006880F858
:10A7F00020120648006890F82102142804DD002188
:10A800000248006880F821120120D1E7940000205E
:10A8100000210648006880F820120448006880F88B
:10A8200021120248006880F822127047940000202C
:10A8300001461A48006890F8200208B900207047C5
:10A840001648006890F822221448006800F5E67067
:10A8500000EB8200006808601048006890F8200251
:10A86000401EC2B20D48006880F820220B480068E4
:10A8700090F82202401CC2B20848006880F82222E8
:10A880000648006890F82202142804DD00220348DC
:10A89000006880F822220120D1E700009400002007
:10A8A00001B51F48006890F8CB0120B10098FFF770
:10A8B00077FF002008BD1A48006890F8C801642896
:10A8C00001DD0020F6E71648006890F8C911144829
:10A8D0000068343000EB8100009901601048006886
:10A8E00090F8C901401CC1B20D48006880F8C91138
:10A8F0000B48006890F8C801401CC1B208480068C5
:10A9000080F8C8110648006890F8C901642804DD81
:10A9100000210348006880F8C9110120CAE700003F
:10A920009400002000B500210948006880F8C81193
:10A930000748006880F8C9110548006880F8CA1106
:10A940000348006880F8CB11FFF762FF00BD0000EC
:10A950009400002001461948006890F8C80108B921
:10A96000002070471548006890F8CA211348006815
:10A97000343000EB8200006808601048006890F8EE
:10A98000C801401EC2B20D48006880F8C8210B48BB
:10A99000006890F8CA01401CC2B20848006880F8FC
:10A9A000CA210648006890F8CA01642804DD002224
:10A9B0000248006880F8CA210120D2E794000020F4
:10A9C00010B50B480068B0F89003B0F5167F01DBB6
:10A9D000002010BD06490968B1F8900304490968D0
:10A9E00001F50561034A126890470120F1E7000074
:10A9F000940000208C00002031B500240C4890F811
:10AA0000250098B1BDF90210BDF9000006F0D6FC92
:10AA100004465CB1012C01D0022C04D10448C06A68
:10AA2000401C0349C8620098FFF73AFF38BD000098
:10AA3000602B002010B50948C08A094991F82D12F1
:10AA4000884209D00548C08A054981F82D0200BF17
:10AA500000BF002000F0EAFB10BD0000F051002014
:10AA6000602B002010B502F02DFE202819DA02F02C
:10AA700029FE1D2804D100200B4981F8510210BD88
:10AA800002F020FE084991F85112884209D002F0E4
:10AA900019FE054981F8510200BF00BF002000F0F7
:10AAA000A9FB00BFEBE70000602B002010B5404879
:10AAB00090F844023F49497A09B9012100E0002198
:10AAC000884210D03B48407A08B9012000E00020BD
:10AAD000374981F84402012081F84502162000F030
:10AAE000A5FB00BF00BF06F091F8314991F84A126A
:10AAF00088420CD006F08AF82D4981F84A020120DC
:10AB000081F84502492000F091FB00BF00BF0BF027
:10AB1000A7FD274991F8471288420CD00BF0A0FD01
:10AB2000234981F84702012081F84502472000F0BF
:10AB30007DFB00BF00BF1E4890F84D021E490978FA
:10AB400088420CD01C480078194981F84D02012038
:10AB500081F84502482000F069FB00BF00BF14489F
:10AB600090F854021549897888420CD013488078AF
:10AB70000F4981F85402012081F845024C2000F071
:10AB800055FB00BF00BF0A4890F852020B49C97834
:10AB900088420CD00948C078054981F8520201204A
:10ABA00081F845024C2000F041FB00BF00BF10BD02
:10ABB000602B002050550020C8000020A400002079
:10ABC00010B50DF07BF9064991F87113884206D053
:10ABD0000DF074F9024981F8710300BF00BF10BD88
:10ABE000602B002010B50C48C078012813D00A480B
:10ABF000807F80B10948407968B907F007FF0528D0
:10AC000009D00548407F082805D00221002002F025
:10AC10000FFA00BF00BF10BD602B0020B45200200F
:10AC200010B507F0F3FE27490978884248D007F0AD
:10AC3000EDFE2449087000BF00BF084600780B28CD
:10AC400037D2DFE800F0360632182236262A0A14F8
:10AC50002E0002201B49C8702CE006201949C8703C
:10AC60000DF02CF910B119201649C87022E01320FC
:10AC70001449C8701EE00B201249C8700DF018F975
:10AC800010B109200F49C87014E001200D49C870A7
:10AC900010E00A200B49C8700CE005200949C87073
:10ACA00008E008200749C87004E004200549C8707E
:10ACB00000E000BF00BF00BF00BF012000F0B6FAF7
:10ACC00010BD0000602B00203EB5FFF71BF80546C5
:10ACD000FFF718F8C8B1FFF70DF800240FE0684639
:10ACE000FFF7F2FC18B19DE80700FFF7B3F8FFF794
:10ACF00011F8B0F5FA7F00DD03E0601CC4B2AC428D
:10AD0000EDDB00BFFFF75CFE04E0FFF777FC08B166
:10AD1000FFF7CAFC3EBD00002DE9F04F85B00446A8
:10AD2000002004908246834600276E48B0F928022E
:10AD300002906C48B0F92A0201906A48B0F92602E4
:10AD400000906848B0F9248224B1012C0BD0022C69
:10AD500019D10FE00098A8EB0000401C81B26148B7
:10AD6000A0F8721210E000205E4981F85802FFF747
:10AD700025F809E000205B4981F858020120049081
:10AD8000FFF71CF800E000BF00BF029E90E0009DAE
:10AD900083E0049878B1002004905248B0F95A62D8
:10ADA000B0F95C52314628464F4A126890478146B6
:10ADB0004FF0010B6FE0314628464B4A126890472E
:10ADC00082460098854202D14FF0010B5CE0CA45F3
:10ADD00021D10BF1010000F0FF0B454554D1012CAE
:10ADE00001D0022C14D18DF80DB08DF80C90039881
:10ADF000FEF7A4FFFEF796FF002845D00120394951
:10AE000081F858020846A0F85A62A0F85C523BE06C
:10AE1000781C87B238E0012C01D0022C13D18DF8B8
:10AE20000DB08DF80C900398FEF788FFFEF77AFFBF
:10AE300058B101202B4981F858020846A0F85A62FF
:10AE4000A0F85C5201E0781C87B24FF0010B454539
:10AE50001AD1012C01D0022C14D101208DF80D0043
:10AE60008DF80CA00398FEF769FFFEF75BFF58B161
:10AE700001201C4981F858020846A0F85A62A0F83F
:10AE80005C5201E0781C87B2D146164890F858020F
:10AE900000B105E000BF681C05B245457FF779AFFA
:10AEA00000BF104890F8580200B105E0701E06B2CD
:10AEB00001988642BFF66BAF00BF84B9642097FB50
:10AEC000F0F0642197FBF1F201FB127109B101214D
:10AED00000E000210844C1B2024880F8711205B0B8
:10AEE000BDE8F08F602B00206800002010B5FFF750
:10AEF000EBFEFFF795FE00F021F9FFF79BFDFFF752
:10AF0000D5FD00F00DF800F089F800F015FAFFF714
:10AF1000A9FDFFF755FE00F017FBFFF763FE10BD1C
:10AF200010B50B4890F8500200280FDD42F2107166
:10AF3000084811F03DF948B11D200CF03BFE0448D3
:10AF400090F85002401E024981F8500210BD0000E6
:10AF5000602B002078000020014800697047000045
:10AF6000602B00203EB50446F0208DF800008DF8DF
:10AF70000A400848D0F8740301900648D0F87403DA
:10AF8000401C0449C1F874039DE80700FFF74CFB1F
:10AF90003EBD0000602B002010B540F6C8310748C8
:10AFA000FDF7C5F8FEF73AFAFFF712FB044805492A
:10AFB000086005480549086010BD0000602B0020AE
:10AFC000BD1301086800002095F900086C000020FE
:10AFD0003EB50446FF208DF80000607A8DF80A0027
:10AFE000606801909DE80700FFF71EFB3EBD000072
:10AFF000014890F85E027047602B0020064890F8E8
:10B00000450238B10020044981F8450200BF00BF65
:10B01000012070470020FCE7602B002010B51B4882
:10B0200090F85E0250B3194890F8410300B110BD8A
:10B03000164890F8590268B10021144880F8591256
:10B0400090F8580230B10220FFF766FE11F098F830
:10B050000F4908604FF47A710D4811F0A9F868B1F2
:10B060000A4890F8701290F87102814207DC1D20A6
:10B0700000F0DCF80021054880F8591203E00021B7
:10B08000024880F85E1200BFD1E70000602B00206C
:10B090007C00002010B5134890F82C0200B300206B
:10B0A000104981F82C0200210E4880F82510006B11
:10B0B00044F25061884201D90A48016300BF00BFD1
:10B0C0000848C06A5B2148436421B0FBF1F084B2B8
:10B0D0000449098E8AB20349886A214600F0D6F8ED
:10B0E00010BD0000602B002010B5134890F82C0212
:10B0F00008BB0120104981F82C02084690F8201066
:10B1000080F8261000200C4981F8240001210A480B
:10B1100080F825100021C1620163FFF71DFF064979
:10B120008862FFF7FFFB1A2000F080F81B2000F078
:10B130007DF800BF00BF10BD602B002008B51A4885
:10B1400090F8250070B349F64041184811F030F8E6
:10B15000D0B1154890F8C80118B11B2000F066F86E
:10B1600012E01148C07806280BD00F48C078132889
:10B1700007D00D48C078052803D00B48C07819289F
:10B1800002D11B2000F052F8074890F8CB0148B9D3
:10B19000054890F8200228B16846FFF749FB00985F
:10B1A000FFF77EFB08BD0000602B00207000002030
:10B1B00010B500BF00BFC920FFF7D4FE012000F08A
:10B1C00035F8002000F032F8162000F02FF8492062
:10B1D00000F02CF8472000F029F8482000F026F86D
:10B1E0004C2000F023F8232000F020F8002000F08D
:10B1F00001F810BD3EB5044681208DF800008DF8A1
:10B20000094000208DF80A000748D0F87403019027
:10B210000548D0F87403401C0349C1F874039DE845
:10B220000700FFF701FA3EBD602B00203EB5044643
:10B2300080208DF800008DF80A400848D0F874038B
:10B2400001900648D0F87403401C0449C1F8740307
:10B250009DE80700FFF7E8F93EBD0000602B0020E5
:10B2600010B500240748407F072809D1064803F09D
:10B2700055F80446032C03D00321034803F075F866
:10B2800010BD0000602B00200140000870B506468C
:10B290000C46154600BF00BF1C20FFF7C7FF00206B
:10B2A000FFF73AFD0120FFF737FD0C48C0F8606258
:10B2B000A0F86C42A0F86E52012180F8681280F864
:10B2C0007012002180F8691280F86A12012180F85A
:10B2D0005E12002180F8591270BD0000602B002022
:10B2E0003EB50446F1208DF800008DF80A4008486C
:10B2F000D0F8740301900648D0F87403401C044948
:10B30000C1F874039DE80700FFF78EF93EBD000009
:10B31000602B002010B504460648047700BF00BF2C
:10B32000C820FFF7DDFF022C02D101200149C877B8
:10B3300010BD0000602B002010B542F210710B48C8
:10B3400010F036FF80B10A480069401C08490861C6
:10B350000846C068401CC860084690F8250018B12F
:10B360000846006B401C086310BD000074000020FC
:10B37000602B002010B5104890F87C03D8B1002055
:10B380000D4981F87C0300BF00BF084690F85302C6
:10B390000A49887008468078012802D0022808D11E
:10B3A00003E01B200CF006FC04E01C200CF002FC67
:10B3B00000E000BF00BF10BD602B0020A4000020F3
:10B3C00010B5184890F87B0350B30020154981F858
:10B3D0007B0300BF00BF084690F8780306281DD203
:10B3E000DFE800F01C03080D12174FF480400BF04B
:10B3F00021FD14E04FF400400BF01CFD0FE04FF472
:10B4000080300BF017FD0AE04FF400300BF012FD16
:10B4100005E04FF480200BF00DFD00E000BF00BF01
:10B4200010BD0000602B00200D4890F88103A8B1EA
:10B4300000200B4981F8810300BF00BF084690F847
:10B44000490208494843642190FBF1F04DF2F02194
:10B450000844054948600846406888607047000015
:10B46000602B0020D0010100A8530020074890F86D
:10B47000830350B10020054981F8830300BF00BF5A
:10B48000084690F84C02024908707047602B002073
:10B49000C800002010B5054CA4F82602A4F8241218
:10B4A000A4F82A22A4F8283210BD0000602B002046
:10B4B00010B5174890F87D0340B30020144981F877
:10B4C0007D0300BF00BF0021084601F0B1FD082048
:10B4D0000F49487700200F490968884700200C4928
:10B4E00081F8200064200C49087040F27E400B492E
:10B4F00088800B480B498860486001200A498870A1
:10B500000A494872FF210A4802F02FFF10BD0000CF
:10B51000602B00206C000020C80000209454002004
:10B52000D8530100A8530020A4000020505500204B
:10B530000140000803B50348009AC0F88623A0F82C
:10B540008A130CBD602B002010B500F0B5F800F098
:10B55000E5F8FFF735FFFFF70DFFFFF7A9FF00F054
:10B560001DF800F06DF8FFF75FFF00F08BF8FFF7B4
:10B570007DFF00F023F800F001F810BD10B506487B
:10B5800090F8790338B10020034981F87903FFF777
:10B590000FFE00BF00BF10BD602B002010B5064895
:10B5A00090F87F0338B10020034981F87F0300BF82
:10B5B00000BFFFF7FDFD10BD602B002010B5174840
:10B5C00090F8840340B30020144981F8840300BF3D
:10B5D00000BF0021084601F02BFD08200F494877E5
:10B5E00000200F490968884700200C4981F8200095
:10B5F00064200C49087040F27E400B4988800B485B
:10B600000B498860486001200A4988700A494872DD
:10B61000FF210A4802F0A9FE10BD0000602B0020A7
:10B620006C000020C800002094540020D853010072
:10B63000A8530020A400002050550020014000081D
:10B6400010B50E4890F88003B0B100200B4981F886
:10B65000800300BF00BF084690F8430230B11420B9
:10B660000CF0A8FA00200649487205E001200449C0
:10B67000487215200CF09EFA10BD0000602B0020CF
:10B68000505500200A4890F8820380B100200849F4
:10B6900081F8820300BF00BF084690F8460200EB25
:10B6A000800040F27261A1EB40000249888070473F
:10B6B000602B00209454002010B5174890F87E03AA
:10B6C00040B30020144981F87E0300BF00BF084644
:10B6D000407F082807D10021084601F0A9FC00207E
:10B6E0000D4981F820000C48407F072812D10A48F4
:10B6F000C07F48B100200849C87713200CF05AFADF
:10B700000221002001F094FCFFF752FD01200249C4
:10B7100081F8200010BD0000602B002010B52948E2
:10B7200090F87A0300284BD00020264981F87A034C
:10B7300000BF00BF0846807819283DD2DFE800F03E
:10B740000D0E0F1415191E3C233C283C2D2E2F3CAA
:10B750003C3C3C303C343C3C35002EE02DE04FF48A
:10B7600000600BF067FB28E027E040200BF062FB55
:10B7700023E04FF480700BF05DFB1EE04FF40020DF
:10B780000BF058FB19E04FF480500BF053FB14E022
:10B790004FF400500BF04EFB0FE00EE00DE00CE01C
:10B7A00040200BF047FB08E007E04FF480500BF01F
:10B7B00041FB00BF00BF00E000BF00BF00BF00BFF3
:10B7C00010BD0000602B002070B52DED0C8B9FED9F
:10B7D000460BB0EE408AF0EE608A9FED430BB0EE70
:10B7E000409AF0EE609A0024002500BF53E04049E3
:10B7F00031F91400FCF73BFE41EC1D0B9FED3D0BB6
:10B8000053EC102BFCF752FD41EC1C0B9FED3B0B56
:10B8100053EC102BFCF7BCFD41EC1B0BB0EE4B0ABC
:10B82000F0EE6B0A13F064FEB0EE40AAF0EE60AAF0
:10B8300053EC182B51EC1A0BFCF791FC41EC180B54
:10B840002B4931F91400FCF712FE41EC1D0B9FED62
:10B85000290B53EC102BFCF729FD41EC1C0B9FED41
:10B86000270B53EC102BFCF793FD41EC1B0BB0EEB8
:10B870004B0AF0EE6B0A13F067FDB0EE40AAF0EE53
:10B8800060AA53EC192B51EC1A0BFCF768FC41EC45
:10B89000190B601C44B2042CA9DBB0EE491AF0EE7F
:10B8A000691AB0EE480AF0EE680A13F055FCB0EEE3
:10B8B00040CAF0EE60CA9FED110B53EC102B51EC17
:10B8C0001C0BFCF7F3FC41EC1B0B9FED0A0B53EC3C
:10B8D000102BFCF75DFD41EC1A0BFCF7E6FD05B201
:10B8E0002846BDEC0C8B70BD00000000000000007D
:10B8F00046380020182D4454FB2109400000000068
:10B9000000209C4073B500241648817A807A401C40
:10B91000144A9072052902DB0520114688721148ED
:10B92000807A012818DD104DDDE900236968286858
:10B9300006F0D3FC044621B20A48C27A0C3020F843
:10B9400012100C38C07A401C0649C8720846C07AEA
:10B95000042801DB0020C8720348DDE9001206C09C
:10B960007CBD0000443800209C0000200D4909786F
:10B97000491C0C4A117011460978042901DB042185
:10B98000117008494978491C064A51701146497896
:10B99000042901DB0021517002494A78891C21F8F1
:10B9A000120070474438002070B504460025012C71
:10B9B00002D0022C0CD105E00A480078042800DAF5
:10B9C000012506E00748807A052800DA012500E015
:10B9D00000BF00BF0DB1002070BD2046FDF7ACFBDD
:10B9E000FAE70000443800200146A1F5617000B27A
:10B9F0007047000010B516210148FCF798FB10BDF8
:10BA0000443800200148007D704700004438002081
:10BA10000020014908757047443800200020024981
:10BA2000C872887270470000443800200020024924
:10BA30000870487070470000443800207CB5044608
:10BA400005F07AFE0190604203B2134AA2F174003D
:10BA5000416F019806F066FA06F028FA04F5616075
:10BA60004FF4616190FBF1F201FB120005B2284630
:10BA700002F088FE13F012F913F080F805F05CFE76
:10BA8000019005F059FE0090BDF90610BDF90000C7
:10BA900006F01CFB7CBD0000E451002001200149A0
:10BAA000087570474438002010B51348007800B975
:10BAB00010BD4FF4967014F009FC4FF47A62142113
:10BAC0000846FDF7EBF908E001F098FFFDF707FBEA
:10BAD00018B100200CF0FEF907E006F097FF0128EE
:10BAE00003D006F093FF0328EED100BF12F0F0FC64
:10BAF00012F08AFE00BFDBE72E0100200B498968A7
:10BB000001440A4A91601146498A814201DD114689
:10BB100048820649898A814201DA044988820349B8
:10BB2000097C491CCAB201490A747047F0510020CF
:10BB300000B50346094890F82400401C074981F8E5
:10BB40002400084690F82400142805DB002081F822
:10BB500024001846FFF7D2FF00BD0000F05100207E
:10BB600010B502463C4B197C5C8A9B8A23443A4CB4
:10BB7000A468E41A8B1EB4FBF3F00024364B1C744B
:10BB80000023354CA3604FF48054334B5C82002477
:10BB90009C8212B35B8B1B1A00EE903AF8EEE00A1F
:10BBA00060EE800AFDEEE00A10EE900A002800DA4E
:10BBB0000020294B188300FB01F34FF47A7493FBA8
:10BBC000F4F4254BDB681C1B234BDC60DB68002B8B
:10BBD00020DA0024204BDC601CE01F4B5B8BC31A77
:10BBE00000EE903AF8EEE00A60EE800AFDEEE00A20
:10BBF00010EE900A002800DA0020174B188300FB93
:10BC000001F34FF47A7493FBF4F4134BDB681C4498
:10BC1000114BDC60104BDB68104CA34201DD0E4B76
:10BC2000DC600D4BDB680D4CE31A642463430B4C62
:10BC3000641C93FBF4F39CB2074BDC82DB6813B902
:10BC40006424054BDC82044BDB8A642B02DD642414
:10BC5000014BDC8210BD0000F051002040548900EF
:10BC600070B5044600BF0B4A5088D16A8847054624
:10BC700008484483C5820021C161C5F164000649BA
:10BC80004843642190FBF1F10248C16000BF00BF4E
:10BC900070BD0000F05100204054890001488088A8
:10BCA00070470000F05100200148408870470000B4
:10BCB000F051002010B530210448FCF738FA044850
:10BCC000024988620348C86210BD0000F05100209C
:10BCD00049EE000855EE00080348C08A142801DC2C
:10BCE000012070470020FCE7F05100200748408801
:10BCF00040F21451884201DA012070470348C08A9B
:10BD0000062801DA0120F8E70020F6E7F0510020CC
:10BD100010B50948408840F26E51884201DC01208C
:10BD200010BD054A5088D16A8847022801DA0120EF
:10BD3000F6E70020F4E70000F05100200021014860
:10BD4000C1607047F05100200149488070470000F1
:10BD5000F051002010B52DED028BB0EE408A1D4948
:10BD6000886A80471C49096808441B4908601949CA
:10BD7000886A804700EE100AB8EE400A20EE080AF2
:10BD8000BCEEC00A10EE100A1249888013480078F1
:10BD9000401E1249087008460078C0B90820087093
:10BDA0000D480068C0080C490860084690ED000A7C
:10BDB000B8EE400A20EE080ABCEEC00A80ED000A88
:10BDC000098888B2FFF7C0FF002003490860BDEC76
:10BDD000028B10BDF05100204401002048010020DA
:10BDE00010B5002406494868804708B144F00104B2
:10BDF00003498868804708B144F00204204610BD1A
:10BE00002052002005480021016041608160044803
:10BE100002494860034888607047000020520020B3
:10BE200091EE0008A9EE000810B54FF4FA610E4833
:10BE300010F0BEF9B0B1FFF7D3FF28B10B4800787E
:10BE4000401C0A49087002E00020084908700748B1
:10BE500000781E2804DD002004490870012010BD70
:10BE60000020FCE70020FAE74C01002020520020CF
:10BE700000BFFEE710B5002400F03CF850B10C48BC
:10BE8000007818B910F07CF90A49086001200849C7
:10BE9000087002E00020064908700548007820B1CB
:10BEA0000448006810F072F90446204610BD0000F6
:10BEB000510100205401002010B5002400F01AF8B0
:10BEC00038B10648007800B9012401200349087000
:10BED00002E0002001490870204610BD50010020FA
:10BEE00010B50024FFF7C6FFB0F5FA7F00D3012498
:10BEF000204610BD10B504490868804708B10120EC
:10BF000010BD0020FCE700002C520020034804492B
:10BF1000086004484860044888607047C1EE000823
:10BF20002C520020D9EE0008EDEE000810B50024D8
:10BF300027494868804718B925498868804750B321
:10BF400023494868804780B12248007868B10020C2
:10BF5000204908700120204908700846007802280E
:10BF600003D110F00DF91D49086019498868804710
:10BF7000E0B118480078C8B10020164908700220C6
:10BF8000154908700846007802280FD110F0F8F81B
:10BF9000124908600AE001200E4908700E48007836
:10BFA00020B10D48047800200B4908700A48007839
:10BFB00002280BD10948006810F0E8F847F2305128
:10BFC000884203D3002004490870FF24204610BD96
:10BFD0002C5200205D0100205C010020580100204F
:10BFE00070B50024002500260CE0FFF743FF05464E
:10BFF00041F28830854205D326B9012600200BF096
:10C00000D9FD0124FFF776FF0028EED1204670BD50
:10C0100010B5002408E0601C84B2B4F57A7F00DB20
:10C0200011E0142014F0B6FC084908688047002885
:10C03000F1D10649486880470028ECD10349886857
:10C0400080470028E7D100BF10BD00002C5200201F
:10C0500010B5002408E0601C84B2B4F57A7F00DBE0
:10C0600006E0142014F096FCFFF744FF0028F2D1FC
:10C0700000BF10BD10B5044801690120884702487F
:10C0800041690120884710BD3852002010B506488C
:10C090000169002088470448416900208847024818
:10C0A00081690120884710BD38520020014800787E
:10C0B000704700003852002010B51C210748FCF7DB
:10C0C00036F802F047FF054988600548C860054812
:10C0D0000861054848610548886110BD3852002054
:10C0E00001EF00080DEF00085DEF000831EF0008D8
:10C0F0000448408840F2A461884201DB0120704777
:10C100000020FCE7385200200148407870470000CA
:10C110003852002001480079704700003852002052
:10C1200001484079704700003852002001494870AA
:10C130007047000038520020014908717047000024
:10C140003852002001490870704700003852002022
:10C150000149487170470000385200200149488069
:10C16000704700003852002010B52DED028BB0EE64
:10C17000408A1649C8688047154909680844144927
:10C18000086014480078401E12490870084600787C
:10C19000C0B9082008700E480068C0080C49086043
:10C1A000084690ED000AB8EE400A20EE080ABCEE00
:10C1B000C00A80ED000A098888B2FFF7CFFF00208F
:10C1C00003490860BDEC028B10BD0000385200200E
:10C1D000600100206401002001200449087188707A
:10C1E000087048700020C87070470000A40000204C
:10C1F0000E48C078401C0D49C87008464078097840
:10C20000884208DA09484078401C0849487000BF55
:10C2100000BF0020704705484078044909788842EB
:10C2200001D10120F6E70020F4E70000A40000207F
:10C230000548807804490870012048700020C870C3
:10C2400000BF00BF70470000A400002010B500240C
:10C2500000F09CF810B900200B4908764FF47A7171
:10C26000094814300FF0A4FF60B100F08FF820B13E
:10C270000548007E401C044908760348007E0128DA
:10C2800000DB0124204610BD5452002010B53A486E
:10C290004088322811DA3848C07B401C3649C873C0
:10C2A0000846C07B022811DD0220C873334800789D
:10C2B00040F001003149087008E000202E49C873A1
:10C2C0002E48007820F001002C4908702A48C088C8
:10C2D000322811DA2848407C401C27494874084617
:10C2E000407C022811DD022048742448007840F088
:10C2F00002002249087008E000201F4948741F48C6
:10C30000007820F002001D4908701B488088322800
:10C3100011DA1948007C401C174908740846007C53
:10C32000022811DD022008741448007840F004004F
:10C330001249087008E000200F4908740F4800787F
:10C3400020F004000D4908700B48C07B28B90A484A
:10C35000007C10B90848407C48B10749486A8047CA
:10C3600028B10548807B10B10349086A804703481B
:10C3700000780149487010BD54520020650100202A
:10C3800001200149887370475452002001484078C9
:10C39000704700005452002010B5FFF7F7FF044625
:10C3A000A4B1C82013F092FFFFF7F0FF04466CB170
:10C3B00004F0010000B1012404F0040000B10424E1
:10C3C00004F0020000B10224204610BD0020FCE76A
:10C3D00010B528210548FBF7AAFE05480349C861A6
:10C3E000044808620448486210BD0000545200200E
:10C3F0007DEF0008E1E4010871E401080748408886
:10C40000322809DA0548C088322805DA03488088CE
:10C41000322801DA012070470020FCE75452002046
:10C4200010B50C48807B08B9002010BD0948408831
:10C43000322807DB0748C088322803DB054880889C
:10C44000322805DA0349486A804708B10120ECE741
:10C450000020EAE75452002008B5A648407A00B907
:10C4600008BDA5480078012814D142F21071A348F4
:10C470000FF09EFE00280CD0A14890F8460001283D
:10C4800007D19C4B9B889AB29A4B197A587800F046
:10C49000F3F92CE1984800780228FAD19548007801
:10C4A0000E2879D2DFE800F00712515B6679909B85
:10C4B000ADD1DCF078EE42F2107190480FF078FECA
:10C4C00018B101208B49887208700FE18948C16A50
:10C4D000012088470FF054FE864948610220087009
:10C4E0000846007A78B90846406860B908468088EE
:10C4F00080B200900B7A48780022114600F002F9D1
:10C500007C49C86020E07B48406842F2B8218842FC
:10C510000DD17848808880B2764900900B7A4878AF
:10C520000022114600F0EEF87249C8600CE0714834
:10C53000808880B26F4900900B7A487801220021F0
:10C5400000F0E0F86B49C860D0E06A4948690FF034
:10C550001DFEC82802D3032066490870C6E065485E
:10C56000016B012088470FF00BFE624948610420EF
:10C570000870BBE05F4948690FF008FE3B280AD30A
:10C5800005205C4908700FF0FBFD5A4948610846D8
:10C59000016B00208847A9E0A7E0564948690FF0E1
:10C5A000F5FD27280FD32020524908740846C0689B
:10C5B00000F00040B0F1004F02D10620087002E008
:10C5C00009204C49087091E04A48016B01208847D6
:10C5D0000FF0D6FD474948610720087086E04549BD
:10C5E00048690FF0D3FD13280AD308204149087089
:10C5F0000FF0C6FD3F4948610846016B002088479F
:10C6000074E03C4948690FF0C1FD09281CD3394842
:10C61000C06840003749C8600846007C401E087466
:10C620000846007C68B10846C06800F00040B0F1E0
:10C63000004F02D10620087006E009202D4908703D
:10C6400002E00D202B49087050E02A48016B0120C0
:10C6500088470FF095FD274948610A20087045E09A
:10C66000244948690FF092FD09280AD30B2021497B
:10C6700008700FF085FD1F4948610846016B0020D6
:10C68000884733E024E0FFE71A4948690FF07EFD50
:10C6900009281CD31748C06840001649C8600846DE
:10C6A000007C401E08740846007C68B10846C068DB
:10C6B00000F00040B0F1004F02D10620087006E003
:10C6C00009200C49087002E00D200A4908700DE0AD
:10C6D0000848C16A002088470648016B0020884747
:10C6E000002004490870887200E000BF00BF00BF4E
:10C6F000B6E600007C5200202C01002068010020DA
:10C70000F0530020F0B505460E46059C00200021A0
:10C710002946402901D200EB41603146012901D16F
:10C7200000EB01601146012901D100EBC15019460F
:10C73000802901D200EB01402146B1F5803F00D2B3
:10C740000844214601F0010717B1012100EBC17037
:10C75000F0BD000010B538210548FBF7E8FC05489E
:10C76000034948630448C8620448086310BD0000D8
:10C770007C520020F5C90108A5EF0008FDEF000874
:10C780002DE9F0430C461546002200260021002723
:10C790004FF0AA098846491C00F808904FF0550947
:10C7A0008846491C00F808904FF00D098846491C3E
:10C7B00000F8089000BF0CE04FF0CC098C4601F166
:10C7C000010808F0FF0100F80C9002F1010C0CF0D8
:10C7D000FF02032AF0DB8C4601F1010808F0FF019B
:10C7E00000F80C402F4600220BE08C4601F10108B6
:10C7F00008F0FF0100F80C703F0A02F1010C0CF088
:10C80000FF02022AF1DB8C4601F1010808F0FF016A
:10C8100000F80C3000220CE04FF000098C4601F1CA
:10C82000010808F0FF0100F80C9002F1010C0CF077
:10C83000FF02042AF0DB022208E010F802C0B44430
:10C840000CF0FF0602F1010C0CF0FF028A42F4DB4F
:10C850004654BDE8F083000010B5034B58701C46E9
:10C8600021725A6010BD00007C52002001494872BC
:10C87000704700007C52002070B504460D461646F5
:10C88000EBB2324621460548FFF77AFF03481838D5
:10C890000249426B1420904770BD00009452002062
:10C8A0000B48406800F4001028B10948C06840F403
:10C8B00000100749C8600648406800F4C81028B155
:10C8C0000348C06840F4C8100149C86070470000C0
:10C8D00000600240704700000D48006800F00060F2
:10C8E00038B10B480830006840F000600849083152
:10C8F00008600748006800F0C86038B10448083094
:10C90000006840F0C86002490831086070470000C4
:10C91000046402407047000010B542F210710248F2
:10C920000FF046FC10BD00003C010020704710B520
:10C930004FF4FA7013F094FC04F0B0F910F08EFA92
:10C9400011F07EFF0BF0B4FB10BD000010B5FFF737
:10C95000DBFB04469FED0E0AFFF702F99FED0D0A7F
:10C96000FFF7F8F99FED0C0AFFF7FEFB9FED080AB1
:10C970000BF018FB9FED090A11F086FC9FED070AEA
:10C9800004F002F99FED050A10F0EAF910BD00006D
:10C9900000404E400020083F00840F3F0040CE3F43
:10C9A00010B50021084600F0DFF90021084600F02C
:10C9B00073F90021084600F03BFB0021084600F017
:10C9C0008DF9002000F0F2FA002000F0CFFA0020EC
:10C9D00000F00EFB002000F0A7F9002000F064FA40
:10C9E000002000F0EFF9002000F07EFA002000F0B7
:10C9F0009DFA002000F008FA10BD000010B541F2C9
:10CA000088312B480FF0D4FB00284FD029480078FC
:10CA1000C0F101002749087008460078F0B12648A7
:10CA20004078012805D12449C8688047224988698F
:10CA3000804721488078012805D11F49C868804770
:10CA40001D49C86A80471C48007901282ED11A491F
:10CA5000C86880471849486A804727E01748007827
:10CA6000022815D114488078012802D11249886A19
:10CA7000804711484078012802D10F490869804752
:10CA80000D480079012811D10B49086A80470DE053
:10CA900009484078012802D10749086980470648BB
:10CAA0008078012802D10449886A804710BD0000BF
:10CAB0006C01002070010020B45200202C010020E5
:10CAC00010B518484078022803D01648C0780228CC
:10CAD00026D141F2883114480FF06AFB00B31348A5
:10CAE000007860B112480078401C1149087008466F
:10CAF000007807280FDD00200C4908700BE00C4877
:10CB00000078401E0A49087008460078002802DCB8
:10CB10000120064908700348816805480078884765
:10CB200010BD0000B45200207401002078010020E4
:10CB30007901002010B594212B48FBF7F8FA02F098
:10CB400007FC2A4828498860294808612948486123
:10CB5000294888612948C8612948086229484862EB
:10CB6000294888622948C8622948086329484863D7
:10CB7000294888632948C8632948086429484864C3
:10CB8000294888642948C8641F4888621F48C862C9
:10CB90002748086527484865274888652748C865A5
:10CBA0002748086627484866274888662748C86691
:10CBB0002748086727484867274888672748C1F8F3
:10CBC00084002748C1F888002648C1F88C00264810
:10CBD000C1F890002548C8672548C1F8800025485D
:10CBE000C8600120087010BDB4520020C1F60008D2
:10CBF00065F20008D1F2000821F2000899F200085D
:10CC0000B1F000089DF000081DF80008F1F70008D9
:10CC100015F1000899F10008C5F0000845F1000879
:10CC200045F700087DF7000825F7000859F70008C8
:10CC3000CDF60008F9F6000819F6000805F6000818
:10CC4000BDF70008D1F700089DF700080DF20008B5
:10CC5000F9F1000841F600082DF60008F1F500088A
:10CC6000DDF5000869F6000855F6000891F60008A1
:10CC70007DF60008EDF1000810B50648007800B90F
:10CC800010BDFFF7BBFEFFF71BFF00F0F5F900BF7B
:10CC9000F6E70000B452002070B504460D460E4879
:10CCA000047135B1012D08D0022D09D0032D0ED10C
:10CCB0000AE00949086A80470CE000BF00BF09E0AC
:10CCC0000549486A804705E000BF00BF02E000BF99
:10CCD00000BF00BF00BF70BDB452002070B5044655
:10CCE0000D461048C47000BF00BF35B1012D08D0FB
:10CCF000022D0AD0032D10D10BE00A49086B8047A2
:10CD00000EE00849486B80470AE00649886B804777
:10CD100006E00449C86B804702E000BF00BF00BFC7
:10CD200000BF70BDB452002010B5044634B1012CD0
:10CD300008D0022C09D0032C0ED10AE00949C86E94
:10CD400080470CE000BF00BF09E00649086F80473C
:10CD500005E000BF00BF02E000BF00BF00BF00BF92
:10CD600010BD0000B452002070B504460D460F48B7
:10CD7000447035B1012D08D0022D0AD0032D10D1F9
:10CD80000BE00A49086980470EE008494869804776
:10CD90000AE006498869804706E00449C869804777
:10CDA00002E000BF00BF00BF00BF70BDB452002052
:10CDB00010B50446024881682046884710BD00002F
:10CDC000B452002010B5044634B1012C09D0022C15
:10CDD0000AD0032C10D10CE00A49D1F88400804716
:10CDE0000DE000BF00BF0AE00649D1F88800804787
:10CDF00005E000BF00BF02E000BF00BF00BF00BFF2
:10CE000010BD0000B452002010B5044634B1012C0E
:10CE100008D0022C09D0032C0ED10AE00949886DF4
:10CE200080470CE000BF00BF09E00649C86D80479D
:10CE300005E000BF00BF02E000BF00BF00BF00BFB1
:10CE400010BD0000B452002010B50446002000F0D0
:10CE50002BF80020FFF7B6FF002000F045F8002077
:10CE600000F064F8022C0ED0072C08D0082C02D059
:10CE7000092C10D10BE0022000F016F80CE0022083
:10CE800000F032F808E0022000F050F804E0022040
:10CE9000FFF798FF00E000BF00BF0249C868804765
:10CEA00010BD0000B452002010B5044634B1012C6E
:10CEB00008D0022C09D0032C0ED10AE00949486F92
:10CEC00080470CE000BF00BF09E00649886F80473B
:10CED00005E000BF00BF02E000BF00BF00BF00BF11
:10CEE00010BD0000B452002010B5044634B1012C2E
:10CEF00009D0022C0AD0032C10D10CE00A49D1F839
:10CF00008C0080470DE000BF00BF0AE00649D1F861
:10CF10009000804705E000BF00BF02E000BF00BFF7
:10CF200000BF00BF10BD0000B452002010B5044681
:10CF300034B1012C08D0022C09D0032C0FD10BE006
:10CF40000949C86F80470DE000BF00BF0AE00649ED
:10CF5000D1F88000804705E000BF00BF02E000BFBD
:10CF600000BF00BF00BF10BDB452002010B5044682
:10CF700034B1012C08D0022C0AD0032C0ED10AE0C7
:10CF80000949086D80470CE00749486D804708E073
:10CF900000BF00BF05E000BF00BF02E000BF00BF50
:10CFA00000BF00BF10BD0000B452002010B5044601
:10CFB00034B1012C08D0022C0AD0032C10D10BE084
:10CFC0000A49086C80470EE00849486C80470AE02F
:10CFD0000649886C804706E00449C86C804702E037
:10CFE00000BF00BF00BF00BF10BD0000B452002052
:10CFF00010B5044634B1012C08D0022C0AD0032C01
:10D000000FD10BE00949086E80470DE00749486ED3
:10D01000804709E00549886E804705E000BF00BFF2
:10D0200002E000BF00BF00BF00BF10BDB45200202F
:10D0300070B505460C460F488570447134B1012C1B
:10D0400008D0022C09D0032C0ED10AE00949886AC5
:10D0500080470CE000BF00BF09E00649C86A80476E
:10D0600005E000BF00BF02E000BF00BF00BF00BF7F
:10D0700070BD0000B45200207047000010B5044895
:10D080008078012803D100210846FFF7D1FF10BDA9
:10D09000B45200202DE9FE4F00260027B246B046CC
:10D0A000B146002514F09AFA009000BF00BF03209B
:10D0B00007F0C0FC09F048FDFBF74AFD0A231A46B9
:10D0C0004FF4E1510C20FBF7E7FC00231A46194608
:10D0D0000120FBF7E1FC0B20FBF78AFFAEE1FBF739
:10D0E000F7FB122871D2DFE800F070FDFCFBFAF9C3
:10D0F000F870707070F7AD707070700941F288311F
:10D1000002A80FF055F800287FD009F0E3FC044690
:10D1100004F0400048B104F0200030B10A21084674
:10D1200011F0E8FA4FF000086DE004F0400048B953
:10D1300004F0200030B10F210A2011F0DBFA4FF08B
:10D14000000860E004F0400048B104F0200030B96D
:10D150000A210F2011F0CEFA4FF0000853E004F03E
:10D160001000B8B104F02000A0B9FBF7F1FC1423C3
:10D170001A4640F2DC510320FBF78EFC0A231A46C4
:10D18000B5491120FBF788FC0B20FBF731FF4FF06E
:10D19000000838E004F08000C0B104F04000A8B9F5
:10D1A000FBF7D6FC14231A4640F2DC510220FBF7B1
:10D1B00073FC0A231A46A8491120FBF76DFC0B20CB
:10D1C000FBF716FF4FF000081DE0B5E008F1010085
:10D1D00000F0FF08B8F1040F11DB4FF0000808253C
:10D1E00009F0B2FCFBF7B4FC00231A4619460120F3
:10D1F000FBF752FC0B20FBF7FBFE04E005E00A21E5
:10D20000084611F077FA09F09FFC01980EF0BEFF76
:10D210009249884215D90EF0B3FF0190FBF798FCB4
:10D2200014231A464FF47A610520FBF735FC0023DE
:10D230001A4619460120FBF72FFC0B20FBF7D8FEFE
:10D2400008257DE0FBF74BFF00B10825BAF1000F80
:10D2500020D109F03FFC044604F0400010B104F076
:10D26000200058B904F0400010B104F0100028B9B3
:10D2700004F08000B8B304F02000A0B34FF0010A1E
:10D280000EF07EFF83460021084611F033FA09F0C4
:10D290005BFC39E058460EF079FF44F62061884285
:10D2A00032D309F017FC044604F0400010B104F03A
:10D2B000100058B904F0800010B104F0200028B923
:10D2C00004F04000D0B104F02000B8B1FBF740FCFE
:10D2D0000A231A46604907E026E019E021E014E03D
:10D2E00019E01BE023E00FE01120FBF7D5FB0B203A
:10D2F000FBF77EFE0EF044FF019005E04FF0000AC0
:10D300000A21084611F0F6F91AE0FBF7E8FE17E0EB
:10D31000FBF7C8FE14E0FBF7E2FE11E0FBF7DFFECF
:10D320000EE0FBF7DCFE0BE0FBF794FC08E0FBF7FC
:10D3300091FC05B1A94603E00120FBF759FE00BFAF
:10D3400000BFFBF7C5FA112857D1FEF749FD064685
:10D350003EB3FBF7FDFB14231A464FF496710520EC
:10D36000FBF79AFB06F0010030B114231A46C821DE
:10D370000320FBF791FB05E014231A46C821022085
:10D38000FBF78AFB14231A4664210420FBF784FB75
:10D390000F231A4664211120FBF77EFB0B20FBF7BD
:10D3A00027FEFEF7F3FF07463FB3FBF7D1FB14233D
:10D3B0001A464FF496710520FBF76EFB07F001004B
:10D3C00030B114231A46C8210320FBF765FB05E0A2
:10D3D00014231A46C8210220FBF75EFB14231A46C9
:10D3E00064210420FBF758FB0F231A466421112007
:10D3F000FBF752FB0B20FBF7FBFDADB9FEF778FE08
:10D4000090B10725FBF7A4FB14231A464FF4FA71D9
:10D410000420FBF741FB00231A4619460120FBF7C5
:10D420003BFB0B20FBF7E4FD00F0E8FAB9F1000F3D
:10D4300000D00CE00A21684613F0F2FA05F0E6FA93
:10D44000012804D005F0E2FA03287FF448AE00BFBB
:10D450004846BDE8FE8F0000FEFFFF1F804F120010
:10D4600010B50B48006800F0010078B1084800686A
:10D4700040F00100064908600649C86B8047044631
:10D48000022221460348203009F036FA10BD000080
:10D49000143C0140B854002010B52C48006800F43A
:10D4A000806060B12948006840F4806027490860C6
:10D4B00027480079012802D104200AF0B1F9234855
:10D4C000006800F4006050B12048006840F400603B
:10D4D0001E4908601F488068401C1E4988601B4820
:10D4E000006800F4805058B11848006840F480503B
:10D4F0001649086016480079012801D10AF090F910
:10D500001248006800F4005038B11048006840F438
:10D5100000500E49086011F005F80C48006800F44E
:10D52000804028B10948006840F4804007490860FD
:10D530000648006800F4004038B10448006840F430
:10D5400000400249086010F09FFF10BD143C0140EC
:10D55000205500208055002010B50948006800F0D3
:10D56000020060B10648006840F00200044908600B
:10D5700004480079012802D102200AF051F910BDB7
:10D58000143C0140205500200548006800F00400CC
:10D5900028B10348006840F0040001490860704762
:10D5A000143C014010B50C48006800F0080090B130
:10D5B0000948006840F008000749086007480079FA
:10D5C000012803D120200AF02BF904E00448006967
:10D5D000401C0349086110BD143C01402055002047
:10D5E0009454002010B50B48006800F0100078B18A
:10D5F0000848006840F01000064908600649886B3A
:10D6000080470446012221460348083009F074F996
:10D6100010BD0000143C0140B854002018480068B8
:10D6200000F0400028B11648006840F0400014495E
:10D6300008601348006800F0800050B1104800688E
:10D6400040F080000E4908600E484068401C0D49BB
:10D6500048600B48006800F4807028B108480068F2
:10D6600040F48070064908600548006800F40070C6
:10D6700028B10348006840F4007001490860704711
:10D68000143C0140CC53002044F204000A490860D5
:10D6900043F2010108480838C1600021016144F2E9
:10D6A0001001416105480649086005490C310860D0
:10D6B000091F0860704700000838014099A802005F
:10D6C000003C01400148007870470000B000002095
:10D6D00000B5002000F002F800BD0000014908700C
:10D6E00070470000B000002010B505F08FF9042845
:10D6F00006D005F08BF9052802D005F087F900B9AE
:10D7000010BD202009F074FB08B33E48808840F229
:10D710007E41884207DD16200AF04CFA40F27E4036
:10D720003849888013E03748808840F28A2188424F
:10D7300006DD08463349888018200AF03BFA06E0E7
:10D7400017200AF037FA40F272602E4988804FF4B1
:10D75000007009F04DFB00B32B4880682B498842CC
:10D7600007DA084628494860886019200AF022FA3A
:10D7700013E0254880682649884207DA084622498E
:10D78000486088601A200AF015FA06E01F481E4912
:10D790004860886019200AF00DFA4FF4806009F0A3
:10D7A00027FBC0B105F032F9012803D005F02EF9AE
:10D7B000032810D117488078012806D10220154986
:10D7C00088701C200AF0F6F905E0012011498870E4
:10D7D0001B200AF0EFF9802009F00AFB78B10E480F
:10D7E000407A30B114200AF0E5F900200A49487265
:10D7F00005E001200849487215200AF0DBF900BF56
:10D800007EE7000094540020A8530020D853010064
:10D81000C0D40100A40000205055002010B51448C9
:10D82000C08A1E2804DD02210020FFF757FA15E008
:10D830000F48C08A0F2804DD03210020FFF74EFAAD
:10D840000CE00B48C08A022804DA01210020FFF70F
:10D8500045FA03E003210020FFF740FAFFF732FF0B
:10D860001D2803D101210020FFF738FA10BD000068
